:100000000C9434000C944B000C9449000C9449005F
:100010000C9449000C9449000C9449000C9449003C
:100020000C9449000C9449000C9449000C9449002C
:100030000C9449000C9449000C9449000C9449001C
:100040000C9449000C9449000C948A000C944900CB
:100050000C9449000C9449000C9449000C944900FC
:100060000C9449000C94490011241FBECFEFD8E036
:10007000DEBFCDBF11E0A0E0B1E0E4ECF1E002C0F2
:1000800005900D92A430B107D9F70E94A7000C94F7
:10009000E0000C9400001F920F920FB60F921124F3
:1000A0002F933F934F935F936F937F938F939F9380
:1000B000AF93BF93EF93FF9383EC99E00197F1F730
:1000C00000C000008091C00085FF04C08091000145
:1000D0008093C600809100018F3740F081E28093C9
:1000E000000181E091E00E94C20003C08F5F809315
:1000F0000001FF91EF91BF91AF919F918F917F91FF
:100100006F915F914F913F912F910F900FBE0F9084
:100110001F9018951F920F920FB60F9211242F93D4
:100120003F938F939F938BB19091C600282F2F7090
:1001300030E1939FC0011124822B8BB99F918F9145
:100140003F912F910F900FBE0F901F9018955A9AC4
:100150008AB1806F8AB982E080936900E89A87E665
:1001600090E00E94D100E1ECF0E080818062808329
:100170007894FFCFE0ECF0E0908195FFFDCF809385
:10018000C6000895CF93DF93EC018881882331F076
:1001900021960E94BA0089918111FBCFDF91CF9106
:1001A00008959093C5008093C400E1ECF0E0808155
:1001B00088618083E2ECF0E080818660808308952E
:0401C000F894FFCFE1
:0401C400212F660081
:00000001FF
