S00A000050372E7372656393
S11300000C9434000C943E000C943E000C943E007E
S11300100C943E000C943E000C943E000C943E0064
S11300200C943E000C943E000C943E000C943E0054
S11300300C943E000C943E000C943E000C943E0044
S11300400C943E000C943E000C943E000C943E0034
S11300500C943E000C943E000C943E000C943E0024
S11300600C943E000C943E0011241FBECFEFD8E048
S1130070DEBFCDBF0E9440000C9457000C940000DA
S1130080539A5A9A98E04A99FECFE7E8F3E13197F8
S1130090F1F700C000004A9BF6CF8BB189278BB9DA
S11300A0E7E8F3E13197F1F700C00000ECCFF894F2
S10500B0FFCF7C
S9030000FC
