S00A000045322E73726563A3
S11300000C9434000C9448000C9446000C94460064
S11300100C9446000C9446000C9446000C94460044
S11300200C9446000C9446000C9446000C94460034
S11300300C9446000C9446000C9446000C94460024
S11300400C9446000C9446000C9446000C94460014
S11300500C9446000C9446000C9446000C94460004
S11300600C9446000C94460011241FBECFEFD8E038
S1130070DEBFCDBF21E0A0E0B1E001C01D92A13000
S1130080B207E1F70E9476000C9490000C940000F3
S11300901F920F920FB60F9211242F938F939F9359
S11300A08FE39CE90197F1F700C000008091000103
S11300B08F5F809300012091000189E8289F812DA2
S11300C01124869586958695982F990F890F982FD8
S11300D0990F990F890F281B209300019F918F91ED
S11300E02F910F900FBE0F901F9018955A9A8AB1B6
S11300F088678AB982E080936900E89A789480914D
S11301000001880F880F880F84608BB92FEF83ED6F
S113011090E3215080409040E1F700C00000EFCF11
S1070120F894FFCF7D
S9030000FC
