:100000000C9434000C9449000C9449000C94490061
:100010000C9449000C9449000C9449000C9449003C
:100020000C9449000C9449000C9449000C9449002C
:100030000C9449000C9449000C9449000C9449001C
:100040000C9449000C9449000C9449000C9449000C
:100050000C9449000C9449000C9449000C944900FC
:100060000C9449000C94490011241FBECFEFD8E036
:10007000DEBFCDBF11E0A0E0B1E0EEE3F1E002C0F1
:1000800005900D92AC3DB107D9F70E944B000C943E
:100090009D000C94000087E690E00E94860080E0BE
:1000A00091E00E9477000E949500823649F08A37DD
:1000B00061F0813679F480EB91E00E947700EFCF18
:1000C00080EC91E00E947700EACF80E091E00E940E
:1000D0007700E5CF80ED91E00E947700E0CFE0EC83
:1000E000F0E0908195FFFDCF8093C6000895CF93F7
:1000F000DF93EC018881882331F021960E946F0004
:1001000089918111FBCFDF91CF9108959093C50024
:100110008093C400E1ECF0E0808188618083E2ECB0
:10012000F0E08081866080830895E0ECF0E08081DB
:0E0130008823ECF78091C6000895F894FFCF65
:10013E000A0D4573746F20657320656C206D656EB6
:10014E0075207072696E636970616C2C2073656CBA
:10015E00656363696F6E6120756E613A0A0D2D2DB0
:10016E002D2D2D2D2D2D2D2D2D2D2D2D2D2D2D2DB1
:10017E002D2D2D2D2D2D2D2D2D2D2D2D2D2D2D2DA1
:10018E002D2D2D2D2D2D2D2D2D2D2D2D0A0D612E9F
:10019E000A0D622E0A0D2D2D2D2D2D2D2D2D2D2DD1
:1001AE002D2D2D2D2D2D2D2D2D2D2D2D2D2D2D2D71
:1001BE002D2D2D2D2D2D2D2D2D2D0A0D5A2E567505
:1001CE00656C76652061206D6F7374726172206547
:1001DE006C206D656E750A0D4F7063696F6E3A0017
:1001EE0050726573696F6E6173746520610A0D00DC
:1001FE0050726573696F6E6173746520620A0D00CB
:0C020E004572726F72203A280A0D000041
:00000001FF
