S012000050726F796563746F20362E7372656367
S11300000C9434000C943E000C943E000C943E007E
S11300100C943E000C943E000C943E000C943E0064
S11300200C943E000C943E000C943E000C943E0054
S11300300C943E000C943E000C943E000C943E0044
S11300400C943E000C943E000C943E000C943E0034
S11300500C943E000C943E000C943E000C943E0024
S11300600C943E000C943E0011241FBECFEFD8E048
S1130070DEBFCDBF0E9440000C9456000C940000DB
S1130080259A2D982FE38DE093E0215080409040F5
S1130090E1F700C000002D9A2FE38DE093E021509A
S11300A080409040E1F700C00000EBCFF894FFCF10
S9030000FC
