:100000000C9434000C943E000C943E000C943E0082
:100010000C943E000C943E000C943E000C943E0068
:100020000C943E000C943E000C943E000C943E0058
:100030000C943E000C943E000C943E000C943E0048
:100040000C943E000C943E000C943E000C943E0038
:100050000C943E000C943E000C943E000C943E0028
:100060000C943E000C943E0011241FBECFEFD8E04C
:10007000DEBFCDBF0E9440000C9468000C940000CD
:1000800087E690E00E9451000E9460000E944900B3
:10009000FBCFE0ECF0E0908195FFFDCF8093C600B0
:1000A00008959093C5008093C400E1ECF0E0808156
:1000B00088618083E2ECF0E080818660808308952F
:1000C000E0ECF0E080818823ECF78091C600089591
:0400D000F894FFCFD2
:00000001FF
