S00A000045312E73726563A4
S11300000C9434000C9449000C9449000C9449005D
S11300100C9449000C9449000C9449000C94490038
S11300200C9449000C9449000C9449000C94490028
S11300300C9449000C9449000C9449000C94490018
S11300400C9449000C9449000C9449000C94490008
S11300500C9449000C9449000C9449000C944900F8
S11300600C9449000C94490011241FBECFEFD8E032
S1130070DEBFCDBF11E0A0E0B1E0E6EFF0E002C0EA
S113008005900D92A031B107D9F70E944B000C9452
S113009079000C9400000E94690080E091E00E94C5
S11300A05A00FBCFE0ECF0E0908195FFFDCF809308
S11300B0C6000895CF93DF93EC018881882331F043
S11300C021960E94520089918111FBCFDF91CF913B
S11300D008951092C50087E68093C400E1ECF0E037
S11300E0808188618083E2ECF0E080818660808397
S10900F00895F894FFCF0F
S11300F648656C6C6F20576F726C64200A0D0000A3
S9030000FC
