S012000050726F796563746F20382E7372656365
S11300000C9434000C943E000C943E000C943E007E
S11300100C943E000C943E000C943E000C943E0064
S11300200C943E000C943E000C943E000C943E0054
S11300300C943E000C943E000C943E000C943E0044
S11300400C943E000C943E000C943E000C943E0034
S11300500C943E000C943E000C943E000C943E0024
S11300600C943E000C943E0011241FBECFEFD8E048
S1130070DEBFCDBF0E945C000C948E000C94000087
S11300804A9916C02FEF89EF90E0215080409040AC
S1130090E1F700C000004A9B0DC02FEF89EF90E00C
S11300A0215080409040E1F700C0000080E00895B6
S11300B081E0089581E008958AB188618AB95A9AE5
S11300C0C2E0D2E011E000E00E944000C13051F0F3
S11300D030F0C23059F481111FC0C02F15C0C82F91
S11300E0C1270BC081110DC0CD2F0BC0C13041F011
S11300F018F0C23061F408C0CD2F5C9A5B98E4CF4D
S1130100CD2F5B9A5C98E0CF5C985B98DDCF5C98D0
S11301105B980E944000DFCFCD2FF6CFF894FFCF3D
S9030000FC
