:100000000C9434000C944B000C9449000C9449005F
:100010000C9449000C9449000C9449000C9449003C
:100020000C9449000C9449000C9449000C9449002C
:100030000C9449000C9449000C9449000C9449001C
:100040000C9449000C9449000C9449000C9449000C
:100050000C9449000C9449000C9449000C944900FC
:100060000C9449000C94490011241FBECFEFD8E036
:10007000DEBFCDBF11E0A0E0B1E0E4E1F1E002C0FD
:1000800005900D92A230B107D9F70E946A000C9436
:1000900088000C9400001F920F920FB60F9211244B
:1000A0008F939F938FE39CE90197F1F700C00000C5
:1000B000809100018F5F8093000180910001837027
:1000C0008F5F809300019F918F910F900FBE0F90D3
:1000D0001F9018955A9A8AB188678AB982E08093EE
:1000E0006900E89A789480E0982F990F990F990FFA
:1000F00094609BB92FEF33ED90E321503040904056
:10010000E1F700C0000090910001890F8F70ECCFE3
:04011000F894FFCF91
:020114000100E8
:00000001FF
