:100000000C9434000C9440000C943E000C943E0080
:100010000C943E000C943E000C943E000C943E0068
:100020000C943E000C943E000C943E000C943E0058
:100030000C943E000C943E000C943E000C943E0048
:100040000C943E000C943E000C943E000C943E0038
:100050000C943E000C943E000C943E000C943E0028
:100060000C943E000C943E0011241FBECFEFD8E04C
:10007000DEBFCDBF0E945D000C9474000C940000A4
:100080001F920F920FB60F9211242F938F939F936D
:100090009BB188E089278BB92FEF81EE94E0215046
:1000A00080409040E1F700C000009F918F912F9118
:1000B0000F900FBE0F901F9018958AB188618AB972
:1000C0005A9A82E080936900E89A789490E18BB123
:1000D00089278BB92FEF33ED80E3215030408040EA
:0C00E000E1F700C00000F3CFF894FFCF60
:00000001FF
